:020000040800F2
:10000000A0060020810100084F0B00084D0B0008DE
:1000100000000000000000000000000000000000E0
:10002000000000000000000000000000530B00086A
:100030000000000000000000510B0008550B0008F4
:100040009301000893010008930100089301000840
:100050009301000893010008930100089301000830
:100060009301000893010008930100089301000820
:100070009301000893010008930100089301000810
:100080009301000893010008930100089301000800
:1000900093010008930100089301000893010008F0
:1000A00093010008930100089301000893010008E0
:1000B000930100085F0B00089301000893010008FA
:1000C00000F002F800F04CF812A030C808382418EC
:1000D0002D18AC4201D100F043F80FCCA246AB463C
:1000E0000CA730CF2D1B083F3F197C427F1E544484
:1000F0002D090426F441641EAC4201D300F030F80F
:100100000126334200D0FB1A3343984754465D46DC
:10011000DFE700006811000088110000103A02D3E8
:1001200078C878C1FAD8520701D330C830C101D598
:1001300004680C6070470000704700000023002432
:1001400000250026103A01D378C1FBD8520700D30E
:1001500030C100D50B6070471FB51FBD10B510BD75
:1001600000F04DF81146FFF7F7FF00F0F9FC00F042
:1001700065F803B4FFF7F2FF03BC00F06BF8000072
:100180000748804707480047FEE7FEE7FEE7FEE72F
:10019000FEE7FEE704480549054A064B70470000A4
:1001A0005D0B0008C1000008A0000020A006002090
:1001B000A0020020A002002001E004C0091F0429C1
:1001C000FBD28B0701D50280801CC90700D00270CA
:1001D000704700290BD0C30702D00270401C491E93
:1001E000022904D3830702D50280801C891EE3E71D
:1001F0000022EEE70022DFE7704770477047754640
:1002000000F024F8AE46050069465346C008C00019
:10021000854618B020B5FFF7BDFF60BCB646002686
:100220000027C0C5C0C5C0C5C0C5C0C5C0C5C0C504
:10023000C0C5403D490849008D46704710B5044689
:10024000C046C0462046FFF794FF10BD00487047E7
:100250001000002001491820ABBEFEE72600020076
:1002600070470000F0B589B001900A68002A00D1FB
:10027000B5E00D465B48019B834201D0052000E0BC
:1002800004201721C9065918890A9B05591800919D
:10029000042900D3009000231C461F4607950AE05E
:1002A000114331607F1C2A681046F8401B1DA41CB6
:1002B000002800D193E001260396BE403240F1D0E1
:1002C0000292069303200146A140C9436A6815467D
:1002D00005406B1E012B059213D804910199886883
:1002E000049B1840079BDB68A34003438B60D00648
:1002F000C00FB8404B68B3430E4604990343736084
:1003000006E0032D019E03D10546069B029A20E0DC
:10031000F0680840079B9B68A3400343F360022DED
:10032000069B029A15D11C20184004910F21814090
:10033000FB089B00F3181D6A8D43079E31698140BD
:10034000294319620499069B7068019E0325059054
:100350000540A54030680840284330600598800378
:10036000800F079D9ED052490868039D284308606E
:100370000868284008900C2018400F218140032372
:100380003D469D43089B194EAB598B4300998140D4
:100390001943A951079D144EB1686868C3020BD573
:1003A0001143B160F16883020BD49143F16071682D
:1003B00083030BD491430AE09143B160F168830257
:1003C000F3D51143F16071688303F3D51143069BA4
:1003D00071603168C00300D562E7914361E709B0FD
:1003E000F0BDC04600100048000401400800014074
:1003F00042690B4693430A401104C9188161704752
:10040000002A02D01822815070472822815070475C
:10041000054800687047C0461A48007802490A68D3
:10042000101808607047C0469800002080B58548C5
:10043000016810220A430260032000F005F800F072
:1004400023F8002080BDC04670B504467D20C00062
:100450000C4E317800F0FEFD01468448006800F043
:10046000F9FD00F059FB0125032C08D8002806D11E
:100470000025E84321462A4600F01CF8746028460F
:1004800070BDC0460000002082B00948016801220A
:1004900011430160016811400191019911074268FF
:1004A0000A434260406808400090009802B07047DC
:1004B00018100240002805D40322034693430A4A39
:1004C0009A1803E00C220240064BD2188007C00E97
:1004D0008901C9B28140FF238340106898430843D3
:1004E0001060704714ED00E000E400E0F0B581B06A
:1004F000002846D00446534A1368012003408B422B
:1005000008D213680126B3430B43136012683240CC
:100510008A4237D1009121688A074B4B10D54A0790
:1005200006D5072212021B681343474A1360464B45
:100530001A68F0239A43A3681343434A1360424B5B
:10054000C90722D13F49086801263040009A9042ED
:1005500005D90868B04308600868C00712D1207840
:10056000400706D50720000219688143E068084368
:1005700018601A681007810F3548022912D2044604
:1005800050E00126304601B0F0BD616803290DD06E
:100590001A1F02290FD0012912D1126892030646B0
:1005A000F0D511E0032926D12A4C3BE01A6B9203C7
:1005B0000646E7D508E0126892010646E2D503E058
:1005C000126892070646DDD518680326B043084333
:1005D0001860FFF71DFF07461C4D1B4B18680C21C8
:1005E0000140606880008142ACD0FFF711FFC01B62
:1005F000A842F2D9C6E70321CB031349896A0F2425
:100600000C401549095D94021A40240F134D2C5DCE
:100610009A4202D033049A4200E00E4800F01AFDDC
:100620004443094B18680006000F0D49085CC4409C
:100630000E4804600320FFF707FF0026304601B094
:10064000F0BDC046002002400410024088130000A4
:1006500000127A00006CDC026A1200085A120008CC
:100660004A120008014800687047C0460800002090
:10067000F0B587B004460120002C00D145E204907B
:100680002078C007F94E05940CD071680C20014009
:10069000042900D090E03068800303D5606800280A
:1006A00000D120E12078800721D570680007800FF5
:1006B0000ED070680C210140082900D09DE0032075
:1006C000C003716801400120C003814200D094E062
:1006D00030688007059C03D5E068012800D002E15E
:1006E0003068F82188432169C90001433160059CC5
:1006F0002078000724D42078400737D42078C0061B
:1007000000D4D3E005984069411D00D1C2E0012822
:1007100000D030E1706B042101437163706B0121E3
:1007200001437163FFF774FE0546706B800700D5C7
:10073000B4E0FFF76DFE411B03200229F5D9E4E187
:10074000706AE169002900D181E0012108437062EB
:10075000FFF75EFE0546706A8007CCD4FFF758FEAF
:10076000401B0228F7D9032007B0F0BD01200390F9
:100770000107F0690840029006D1F0690843F06172
:10078000F0690840069006980191E14F3868C0056D
:100790004AD403980402386820433860FFF738FED3
:1007A0000546386820423FD1FFF732FE401B6428DF
:1007B000F7D9032007B0F0BD71680140082908D1BE
:1007C0000320C0037168014001200004814200D170
:1007D00061E7616801204704002900D117E105297C
:1007E00000D12BE1012900D12CE1010432688A43B8
:1007F000326081043068884327E13068059CE168F5
:10080000002936D0012108433060FFF701FE05467C
:100810003068800700D563E7FFF7FAFD401B022828
:10082000F6D9032007B0F0BD05988068002800D1F4
:10083000B6E0052800D1C9E0012800D1CAE0306A3D
:10084000039988433062306A04218843C5E001215E
:1008500088437062FFF7DCFD0546706A800700D4AC
:1008600049E7FFF7D5FD401B0228F6D9032007B062
:10087000F0BD012188433060FFF7CAFD05463068AE
:10088000800700D433E7FFF7C3FD411B0320022993
:10089000F5D93AE1706B042188437063706BF821DD
:1008A000884305998969C9000143716305980078F7
:1008B00080060BD571680C2001400C2939D1706B72
:1008C000800303D50598006A01280CD10598446A75
:1008D000002C00D1E1E070680C210140082905D10D
:1008E000012C00D0C4E0049807B0F0BD012002063E
:1008F00031680492914331604706FFF789FD054650
:10090000022C0BD1049C3068384200D1DEE0FFF7A6
:100910007FFD411B03200229F5D9F6E030683842FB
:1009200000D1BAE0FFF774FD411B03200229F5D97D
:10093000EBE071680140082905D10320C00371680C
:1009400001408142BBD0706B0599096A002900D132
:10095000A9E001210A04104370634C04FFF758FD1D
:100960000546706B2042B1D1FFF752FD411B0320B9
:100970000229F6D9C9E0706B042101437163706BE1
:10098000012188437063FFF743FD0546706B8007C4
:100990008CD5FFF73DFD411B03200229F6D9B4E0B9
:1009A000306A039988433062306A04218843306298
:1009B000584CFFF72DFD0546306A80071DD5FFF71F
:1009C00027FD411B0320A142F6D99EE0306A042195
:1009D00001433162306A0399084330624D4CFFF79E
:1009E00017FD0546306A800707D4FFF711FD401B4D
:1009F000A042F7D9032007B0F0BD02980028059C5B
:100A000000D07BE6F06901998843F06176E6010445
:100A100032688A4332608004316881433160FFF775
:100A2000F7FC0546059C3068384200D13AE6FFF7EE
:100A3000EFFC411B03206429F5D966E0810432688C
:100A40000A4332600104306808433060FFF7E0FC7D
:100A500005463068384200D024E6FFF7D9FC401B39
:100A60006428F6D9032007B0F0BDC046001002404C
:100A70000320C20370680240F16A059CA36A9A428F
:100A8000049D0DD10F221140236B994208D191048E
:100A90000840E16A8842284637D1002007B0F0BDFF
:100AA000284607B0F0BD01210A04904370634C044E
:100AB000FFF7AEFC0546706B204200D106E7FFF75A
:100AC000A7FC411B03200229F5D91EE0F06A0F2183
:100AD0008843059A116B0143F1627B20C003716862
:100AE0008143D06A0843916A0143716030682043B2
:100AF0003060FFF78DFC044630683842CDD1FFF7F7
:100B000087FC011B03200229F6D907B0F0BDC046BF
:100B10000070004088130000401E010E01D001202B
:100B200070470749074A5060074803680B40032194
:100B300089075918016000209060072111607047F3
:100B4000FFFFFF0010E000E020ED00E0FEE7FEE721
:100B50007047704780B5FFF75FFC80BD70477047F6
:100B60009AB0FFF763FC0DAD281D3021FFF742FB63
:100B7000002416941020049011900126109602274C
:100B80000D972846FFF774FD002803D0EFF310807F
:100B900072B6FEE7079708960C940B940A94072008
:100BA000099009A82146FFF7A1FC002803D0EFF324
:100BB000108072B6FEE7089EF2040692FA480838E2
:100BC000016811430160006810400D900D98F7A076
:100BD0000DA90A4628C828C238C838C2F84F384676
:100BE000FFF740FB3102002438462246FFF708FC9D
:100BF000710238460D46059103942246FFF700FC2A
:100C0000B004E94A11680143116039682943396029
:100C10003968EC4A11403960F20202923968114396
:100C20003960B1023A688A433A60396A069A914358
:100C30003962396A814339627004396A81433962A1
:100C40003004396A01433962F005396A81433962F7
:100C5000B005396A814339627005396A8143396266
:100C60003005396A01433962EE4C25461C3D28683F
:100C7000082106910843286028680421014329605F
:100C8000FFF7F0FCE121490200F006FA2146103995
:100C900008602868304328603968E34801403960BB
:100CA000F1033A680A433A60796880229143796097
:100CB000B9680140B960B968DC4A1140B960F968A7
:100CC0000140F960F8681040F8603968D848014080
:100CD000396071033A680A433A607B684022934363
:100CE0007B60BB680340BB60BB68D24D2B40BB60E0
:100CF000FB680340FB60FB682B40FB60C64F3B6812
:100D0000079D2B433B60CC4F03233B61CB4B7B6167
:100D10003B68AB433B603B68B3433B603B6813437A
:100D20003B603A68202307931A433A603A68049D6F
:100D3000AA433A60BA683243BA603A68069B1A43DB
:100D40003A603A68059B9A433A603A68B44B1A4055
:100D50003A60B2033B6813433B6033463A680A4348
:100D60003A60396801403960B8682843B86038682B
:100D7000029908433860B2480068F861B14D68696B
:100D800038623E46183E306818433060211F0868BC
:100D9000069A10430491086004E0049A10680699CA
:100DA000084310602068800643D40798285C3138D7
:100DB00041424141296028462030417831394A4238
:100DC0004A416A60817831394A424A41AA60C17811
:100DD00031394A424A41EA60007931384142414161
:100DE00029616868002809D1A868002806D1E86848
:100DF000002803D12869002800D102E1286868682A
:100E0000002800D18AE0E869632800DC8CE00398C0
:100E1000E8616869411C69618D4A511E884211462A
:100E200000DDA9E0894A511E8842114600DAA3E09C
:100E3000A3E07A480599FFF7DBFA2068800608D41A
:100E40002068800605D42068800602D420688006C9
:100E5000F3D520890146323989B27B4A9142089BF9
:100E60009BD32168890608D42168890605D42168A6
:100E7000890602D421688906F3D521890A46323AC7
:100E800092B2714FBA4288D32268920608D422687F
:100E9000920605D42268920602D422689206F3D5FF
:100EA00022891346323B9BB2674FBB42089B00D25C
:100EB00073E723689B0608D423689B0605D4236840
:100EC0009B0602D423689B06F3D523890293323B09
:100ED0009BB25D4FBB42089B00D25EE723689B0636
:100EE00008D423689B0605D423689B0602D4236894
:100EF0009B06F3D523890193323B9BB2524FBB42F1
:100F0000089B00D249E7079FE855284620304170EA
:100F100082700299C170019901713EE7A8680028AA
:100F200004D0E869632818DC401CE861E868002800
:100F30002FD0A869632833DD0398A861404A106860
:100F4000411C1160424A511E884211464CDC3F4A06
:100F5000511E8842114647DB48E00398E861686902
:100F6000411E69613A4A511C8842114604DC374AE5
:100F7000511C8842114600DA69613068984330603C
:100F800068692D490862306818433060E8680028B5
:100F9000CFD12869002800D104E7A869632813DCB1
:100FA000401CA861FEE6C0461C1002400003000081
:100FB0000100000000000000000000000000000030
:100FC00000080048FFFEFFFF0398A8611C4A106854
:100FD000411E11601E4A511C8842114604DC1B4A06
:100FE000511C8842114601DA154801603068984367
:100FF0003060134800681049C86130681843306099
:10100000D0E66520A861E8613068984330600398B5
:101010000949C8610862F0E71C1002400008004856
:10102000FFFEFFFF1C480040FFBFFFFFFF7FFFFFE9
:10103000FFEFFFFFFFDFFFFF1804004050C3000079
:101040000C00002070000020FEFF0000B60300002E
:101050008813000043088B421AD3002203098B42F5
:1010600079D3030A8B425ED3030B8B4242D3030C2A
:101070008B4227D30902FF2212BA030C8B4202D300
:101080001212090203D0030B8B4233D31AE0D3E0D0
:10109000411A8041401C704703460B4371D44308FA
:1010A0008B42F5D3002203098B4254D3030A8B42AF
:1010B00039D3030B8B421DD3030C8B4202D39446CE
:1010C0006EE0090AC30B8B4201D3CB03C01A524115
:1010D000830B8B4201D38B03C01A5241430B8B42CB
:1010E00001D34B03C01A5241030B8B4201D30B03B4
:1010F000C01A5241C30A8B4201D3CB02C01A5241DB
:10110000830A8B4201D38B02C01A5241430A8B429D
:1011100001D34B02C01A5241030A8B4201D30B0286
:10112000C01A5241CDD2C3098B4201D3CB01C01AA0
:10113000524183098B4201D38B01C01A52414309AA
:101140008B4201D34B01C01A524103098B4201D398
:101150000B01C01A5241C3088B4201D3CB00C01A05
:10116000524183088B4201D38B00C01A524143087D
:101170008B4201D34B00C01A5241411A5241100018
:101180007047CA0F00D04942031000D34042534079
:1011900000229C4603098B422DD3030A8B4212D3B3
:1011A0008901FC2212BA030A8B420CD389019211E5
:1011B0008B4208D3890192118B4204D3890137D025
:1011C000921100E08909C3098B4201D3CB01C01AF7
:1011D000524183098B4201D38B01C01A524143090A
:1011E0008B4201D34B01C01A524103098B4201D3F8
:1011F0000B01C01A5241C3088B4201D3CB00C01A65
:10120000524183088B4201D38B00C01A5241D9D27C
:1012100043088B4201D34B00C01A5241411A00D2FD
:1012200001465241104663465B1000D3404270476E
:1012300063465B1000D3404201B50021004201D05B
:10124000C9430846C046C04602BD00000000000079
:10125000000001020304060708090203040506074B
:1012600008090A0B0C0D0E0F1010010203040506ED
:101270000708090A0B0C0D0E0F100000A012000841
:1012800000000020100000001C010008B01200083F
:1012900010000020900600003C0100080000000043
:1012A000010000000400000000127A00AC0D0000F4
:04000005080000C12E
:00000001FF
