:020000040800F2
:10000000A806002081010008B30B0008B10B00080E
:1000100000000000000000000000000000000000E0
:10002000000000000000000000000000B70B000806
:100030000000000000000000B50B0008B90B00082C
:100040009301000893010008930100089301000840
:10005000930100089301000893010008650200085D
:100060009301000893010008930100089301000820
:100070009301000893010008930100089301000810
:100080009301000893010008930100089301000800
:1000900093010008930100089301000893010008F0
:1000A00093010008930100089301000893010008E0
:1000B00093010008C30B0008930100089301000896
:1000C00000F002F800F04CF812A030C808382418EC
:1000D0002D18AC4201D100F043F80FCCA246AB463C
:1000E0000CA730CF2D1B083F3F197C427F1E544484
:1000F0002D090426F441641EAC4201D300F030F80F
:100100000126334200D0FB1A3343984754465D46DC
:10011000DFE70000AC120000CC120000103A02D35E
:1001200078C878C1FAD8520701D330C830C101D598
:1001300004680C6070470000704700000023002432
:1001400000250026103A01D378C1FBD8520700D30E
:1001500030C100D50B6070471FB51FBD10B510BD75
:1001600000F04DF81146FFF7F7FF00F02BFD00F00F
:1001700065F803B4FFF7F2FF03BC00F06BF8000072
:100180000748804707480047FEE7FEE7FEE7FEE72F
:10019000FEE7FEE704480549054A064B70470000A4
:1001A000C10B0008C1000008A8000020A80600201C
:1001B000A8020020A802002001E004C0091F0429B1
:1001C000FBD28B0701D50280801CC90700D00270CA
:1001D000704700290BD0C30702D00270401C491E93
:1001E000022904D3830702D50280801C891EE3E71D
:1001F0000022EEE70022DFE7704770477047754640
:1002000000F024F8AE46050069465346C008C00019
:10021000854618B020B5FFF7BDFF60BCB646002686
:100220000027C0C5C0C5C0C5C0C5C0C5C0C5C0C504
:10023000C0C5403D490849008D46704710B5044689
:10024000C046C0462046FFF794FF10BD00487047E7
:100250001000002001491820ABBEFEE72600020076
:100260007047000070B50125AC02174806692640AA
:1002700072427241690200F0F5F8B10A6940134810
:100280008161426912498A4217D04269521C426117
:1002900042698A4211D04269521C426142698A42D3
:1002A0000BD04269521C426142698A4205D04269C0
:1002B000521C426142698A42E7D106490A682243D8
:1002C0000A600021416170BD0008004870000020F4
:1002D0001027000014040140F0B589B001900A68AD
:1002E000002A00D1B5E00D465B48019B834201D056
:1002F000052000E004201721C9065918890A9B052A
:1003000059180091042900D3009000231C461F4671
:1003100007950AE0114331607F1C2A681046F840B7
:100320001B1DA41C002800D193E001260396BE40AB
:100330003240F1D00292069303200146A140C94306
:100340006A68154605406B1E012B059213D804916F
:1003500001998868049B1840079BDB68A34003430E
:100360008B60D006C00FB8404B68B3430E4604996B
:100370000343736006E0032D019E03D10546069BEF
:10038000029A20E0F0680840079B9B68A340034363
:10039000F360022D069B029A15D11C20184004918F
:1003A0000F218140FB089B00F3181D6A8D43079EB7
:1003B00031698140294319620499069B7068019E46
:1003C000032505900540A54030680840284330606B
:1003D00005988003800F079D9ED04E490868039DB5
:1003E000284308600868284008900C2018400F2116
:1003F000814003233D469D43089B194EAB598B43D7
:10040000009981401943A951079D144EB16868684D
:10041000C3020BD51143B160F16883020BD4914341
:10042000F160716883030BD491430AE09143B1609A
:10043000F1688302F3D51143F16071688303F3D54A
:100440001143069B71603168C00300D562E7914398
:1004500061E709B0F0BDC04600100048000401404B
:1004600008000140002A02D018228150704728223B
:1004700081507047054800687047C0461A480078A8
:1004800002490A68101808607047C046A0000020A2
:1004900080B58548016810220A430260032000F0FD
:1004A00005F800F023F8002080BDC04670B5044672
:1004B0007D20C0000C4E317800F06EFE014684486D
:1004C000006800F069FE00F059FB0125032C08D8F4
:1004D000002806D10025E84321462A4600F01CF8F2
:1004E0007460284670BDC0460000002082B00948F4
:1004F00001680122114301600168114001910199D5
:10050000110742680A434260406808400090009822
:1005100002B0704718100240002805D40322034699
:1005200093430A4A9A1803E00C220240064BD21861
:100530008007C00E8901C9B28140FF238340106843
:10054000984308431060704714ED00E000E400E0B9
:10055000F0B581B0002846D00446534A1368012004
:1005600003408B4208D213680126B3430B43136048
:10057000126832408A4237D1009121688A074B4B7A
:1005800010D54A0706D5072212021B681343474AB3
:100590001360464B1A68F0239A43A3681343434AF7
:1005A0001360424BC90722D13F49086801263040F9
:1005B000009A904205D90868B04308600868C007EF
:1005C00012D12078400706D5072000021968814320
:1005D000E068084318601A681007810F354802293F
:1005E00012D2044650E00126304601B0F0BD6168E9
:1005F00003290DD01A1F02290FD0012912D1126828
:1006000092030646F0D511E0032926D12A4C3BE09F
:100610001A6B92030646E7D508E012689201064677
:10062000E2D503E0126892070646DDD51868032676
:10063000B04308431860FFF71DFF07461C4D1B4BD6
:1006400018680C210140606880008142ACD0FFF73F
:1006500011FFC01BA842F2D9C6E70321CB031349FF
:10066000896A0F240C401549095D94021A40240F31
:10067000134D2C5D9A4202D033049A4200E00E489A
:1006800000F08AFD4443094B18680006000F0D492D
:10069000085CC4400E4804600320FFF707FF0026F3
:1006A000304601B0F0BDC0460020024004100240B8
:1006B0008813000000127A00006CDC02AE13000800
:1006C0009E1300088E130008014800687047C0465A
:1006D00008000020F0B587B004460120002C00D1AE
:1006E00045E204902078C007F94E05940CD071685B
:1006F0000C200140042900D090E03068800303D52D
:100700006068002800D120E12078800721D570683A
:100710000007800F0ED070680C210140082900D01E
:100720009DE00320C003716801400120C0038142A5
:1007300000D094E030688007059C03D5E06801286C
:1007400000D002E13068F82188432169C9000143E3
:100750003160059C2078000724D42078400737D4E6
:100760002078C00600D4D3E005984069411D00D12F
:10077000C2E0012800D030E1706B042101437163B5
:10078000706B012101437163FFF774FE0546706BC6
:10079000800700D5B4E0FFF76DFE411B032002295E
:1007A000F5D9E4E1706AE169002900D181E0012115
:1007B00008437062FFF75EFE0546706A8007CCD47E
:1007C000FFF758FE401B0228F7D9032007B0F0BD01
:1007D000012003900107F0690840029006D1F069FA
:1007E0000843F061F0690840069006980191E14FD6
:1007F0003868C0054AD4039804023868204338603A
:10080000FFF738FE0546386820423FD1FFF732FE39
:10081000401B6428F7D9032007B0F0BD7168014080
:10082000082908D10320C003716801400120000499
:10083000814200D161E7616801204704002900D1AD
:1008400017E1052900D12BE1012900D12CE1010498
:1008500032688A43326081043068884327E1306817
:10086000059CE168002936D0012108433060FFF77C
:1008700001FE05463068800700D563E7FFF7FAFD03
:10088000401B0228F6D9032007B0F0BD0598806808
:10089000002800D1B6E0052800D1C9E0012800D128
:1008A000CAE0306A039988433062306A0421884381
:1008B000C5E0012188437062FFF7DCFD0546706AE0
:1008C000800700D449E7FFF7D5FD401B0228F6D981
:1008D000032007B0F0BD012188433060FFF7CAFD57
:1008E00005463068800700D433E7FFF7C3FD411B9E
:1008F00003200229F5D93AE1706B04218843706323
:10090000706BF821884305998969C90001437163B7
:100910000598007880060BD571680C2001400C29E1
:1009200039D1706B800303D50598006A01280CD17A
:100930000598446A002C00D1E1E070680C21014068
:10094000082905D1012C00D0C4E0049807B0F0BDFF
:100950000120020631680492914331604706FFF797
:1009600089FD0546022C0BD1049C3068384200D129
:10097000DEE0FFF77FFD411B03200229F5D9F6E0F9
:100980003068384200D1BAE0FFF774FD411B032004
:100990000229F5D9EBE071680140082905D103204F
:1009A000C003716801408142BBD0706B0599096A30
:1009B000002900D1A9E001210A04104370634C040E
:1009C000FFF758FD0546706B2042B1D1FFF752FD8D
:1009D000411B03200229F6D9C9E0706B04210143B1
:1009E0007163706B012188437063FFF743FD054617
:1009F000706B80078CD5FFF73DFD411B032002295A
:100A0000F6D9B4E0306A039988433062306A042131
:100A100088433062584CFFF72DFD0546306A800749
:100A20001DD5FFF727FD411B0320A142F6D99EE00B
:100A3000306A042101433162306A0399084330620D
:100A40004D4CFFF717FD0546306A800707D4FFF7C6
:100A500011FD401BA042F7D9032007B0F0BD02985A
:100A60000028059C00D07BE6F06901998843F0617D
:100A700076E6010432688A4332608004316881433B
:100A80003160FFF7F7FC0546059C3068384200D11D
:100A90003AE6FFF7EFFC411B03206429F5D966E035
:100AA000810432680A4332600104306808433060D0
:100AB000FFF7E0FC05463068384200D024E6FFF737
:100AC000D9FC401B6428F6D9032007B0F0BDC0460E
:100AD000001002400320C20370680240F16A059CC6
:100AE000A36A9A42049D0DD10F221140236B9942B3
:100AF00008D191040840E16A8842284637D1002095
:100B000007B0F0BD284607B0F0BD01210A049043AC
:100B100070634C04FFF7AEFC0546706B204200D1B9
:100B200006E7FFF7A7FC411B03200229F5D91EE0C9
:100B3000F06A0F218843059A116B0143F1627B2013
:100B4000C00371688143D06A0843916A01437160B0
:100B5000306820433060FFF78DFC0446306838422F
:100B6000CDD1FFF787FC011B03200229F6D907B07E
:100B7000F0BDC0460070004088130000401E010E0A
:100B800001D0012070470749074A506007480368B1
:100B90000B4003218907591801600020906007214C
:100BA00011607047FFFFFF0010E000E020ED00E063
:100BB000FEE7FEE77047704780B5FFF75FFC80BD3A
:100BC0007047704796B0FFF763FC09AD281D3021D0
:100BD000FFF710FB0024129410200D9001270C97B2
:100BE000022009902846FFF775FD002803D0EFF397
:100BF000108072B6FEE708940794069407200590CB
:100C000005A82146FFF7A4FC002803D0EFF31080CD
:100C100072B6FEE7FA040192FE49086810430860C4
:100C20000868104009900998FBA009A90A4618C84D
:100C300018C238C838C2FD4C2046FFF74DFB3902B8
:100C40000025204602912A46FFF70CFC7E02204632
:100C5000314604962A46FFF705FC2046394603959F
:100C60002A46FFF7FFFBB804EA4A91680143916006
:100C70002168314321602168ED4A11402160F90269
:100C800022680A4322602168EA4A11402160216AF1
:100C9000019A91432162216A814321627804216A89
:100CA000814321623804216A01432162F805216AE7
:100CB00081432162B805216A81432162206ADE49AD
:100CC000084020623805216A01432162DB4E354627
:100CD0001C3D2868082101910843286028680421E8
:100CE00001432960FFF7F0FCE121490200F076FAA8
:100CF00031461039086028683843286000F0B6F99A
:100D00002068CD49084020602068CD490840206017
:100D1000A0680840A0607805E2680243E260E068ED
:100D20000840E060C7484A30C7490A6802430A6081
:100D30008A6802438A60CA680243CA60B549486843
:100D4000009738434860C1480168BA4A11400160C1
:100D50000168049A114301600168B54A11400160BD
:100D6000BB48802104910160FF200006B9490A6850
:100D700082430320800710180860BA4F04E0301F38
:100D80000168019A114301603068800670D4282000
:100D9000385C313841424141396038462830417829
:100DA00031394A424A417A60817831394A424A416E
:100DB000BA60C17831394A424A41FA600079313823
:100DC0004142414139617868002816D1B86800284D
:100DD00013D1F868002810D1386900280DD165209A
:100DE000386278629E4A10680121884310600020B2
:100DF000506390631068084310609B480499016039
:100E0000BFF34F8FBFF36F8F386800283C4603D085
:100E1000A0690028009F00D1039FD44D2846029965
:100E20003A46FFF71FFB012128460D463A46FFF7D9
:100E300019FB87480499016060680028274600D1A3
:100E400087E0786A6328D14B00DC89E003987862F8
:100E5000F869411EF961814A511C8842114600DD42
:100E6000A5E0784A511C8842114600DA9FE09FE0D5
:100E70003068800608D43068800605D43068800663
:100E800002D430688006F3D530890146323989B200
:100E9000714A914200D272E73168890608D43168FC
:100EA000890605D43168890602D431688906F3D5EC
:100EB00031890A46323A92B2674B9A4200D25EE7D3
:100EC0003268920608D43268920605D432689206D7
:100ED00002D432689206F3D532891346323B9BB274
:100EE0005D4CA34200D24AE733689B0608D43368BE
:100EF0009B0605D433689B0602D433689B06F3D562
:100F000033891C46323CA4B2534FBC42A04F00D29E
:100F100035E73468A40608D43468A40605D43468D8
:100F2000A40602D43468A406F3D535892F46323F8F
:100F3000BFB2494CA742964F00D220E72827944CD5
:100F4000E055934F3846283041708270C370057168
:100F500015E7B86800288D4B04D0786A632817DC41
:100F6000401C7862F86800282FD0386A632833DD87
:100F7000039838621868411C1960384A511E88422B
:100F800011463BDC2F4A511E8842114636DB36E0C3
:100F900003987862F869411CF961304A511E884211
:100FA000114604DC274A511E8842114600DAF961D5
:100FB0002B4908682A46A8430860F86988630868CE
:100FC00028430860F8680028CFD13869002800D18C
:100FD000DAE6386A632802DC401C3862D4E60398FB
:100FE00038621868411E19601C4A511C884211461B
:100FF00004DC144A511C8842114600DA1960184971
:101000000868A843086018684863086828430860AF
:10101000BAE6C046141002400103000001000000BF
:101020000000000000000000000000000008004870
:10103000FFFEFFFFFFFBFFFFFFFFDFFF1C4800403D
:10104000FFFFEFFFB6030000000401401000014065
:1010500000E100E004E400E0FEFF0000881300006F
:10106000000400407000002080E100E0F0B53F4B3C
:1010700018683F49084018600120C2031C681443E7
:101080001C605A688024A2435A609A680A409A6099
:101090009A68384C22409A60DA680A40DA60D96867
:1010A0002140D9601A6834490A401A6042031C681A
:1010B00014431C605D684024A5435D609D680D403D
:1010C0009D609D682D4E35409D60DD680D40DD6062
:1010D000DD683540DD602A4B1D68022635431D6002
:1010E000284B03251D61284D5D611D68B5431D60BA
:1010F0001D6885431D601D6825431D601C682025F3
:1011000025431D601C681025AC431C609C6804438B
:101110009C601E68082426431E6046021F68B74371
:101120001F6006021F68B7431F6086031F683743AE
:101130001F601E6816431E601A680A401A6099688C
:1011400029439960C1021A680A431A600F49096865
:10115000D9610F49C9691962183B196801431960BF
:101160000C48016821430160F0BDC04600080048FA
:10117000FFBFFFFFFF7FFFFFFFEFFFFFFFDFFFFF6F
:101180001C1002401804004050C300000C00002056
:10119000700000201848004043088B421AD30022F8
:1011A00003098B4279D3030A8B425ED3030B8B4234
:1011B00042D3030C8B4227D30902FF2212BA030C3D
:1011C0008B4202D31212090203D0030B8B4233D39A
:1011D0001AE0D3E0411A8041401C704703460B439C
:1011E00071D443088B42F5D3002203098B4254D3B8
:1011F000030A8B4239D3030B8B421DD3030C8B4262
:1012000002D394466EE0090AC30B8B4201D3CB0391
:10121000C01A5241830B8B4201D38B03C01A524137
:10122000430B8B4201D34B03C01A5241030B8B4239
:1012300001D30B03C01A5241C30A8B4201D3CB0224
:10124000C01A5241830A8B4201D38B02C01A524109
:10125000430A8B4201D34B02C01A5241030A8B420C
:1012600001D30B02C01A5241CDD2C3098B4201D324
:10127000CB01C01A524183098B4201D38B01C01AA2
:10128000524143098B4201D34B01C01A5241030919
:101290008B4201D30B01C01A5241C3088B4201D3C8
:1012A000CB00C01A524183088B4201D38B00C01A75
:1012B000524143088B4201D34B00C01A5241411A9C
:1012C000524110007047CA0F00D04942031000D3AA
:1012D0004042534000229C4603098B422DD3030A0F
:1012E0008B4212D38901FC2212BA030A8B420CD31F
:1012F000890192118B4208D3890192118B4204D348
:10130000890137D0921100E08909C3098B4201D3CA
:10131000CB01C01A524183098B4201D38B01C01A01
:10132000524143098B4201D34B01C01A5241030978
:101330008B4201D30B01C01A5241C3088B4201D327
:10134000CB00C01A524183088B4201D38B00C01AD4
:101350005241D9D243088B4201D34B00C01A5241AB
:10136000411A00D201465241104663465B1000D339
:101370004042704763465B1000D3404201B50021F4
:10138000004201D0C9430846C046C04602BD000025
:101390000000000000000102030406070809020320
:1013A0000405060708090A0B0C0D0E0F10100102A8
:1013B000030405060708090A0B0C0D0E0F100000A8
:1013C000E013000800000020100000001C010008CD
:1013D000F013000810000020980600003C010008EF
:1013E000010000000400000000127A00AC0D0000B3
:04000005080000C12E
:00000001FF
